:0400000010EF02F00B
:060008007C825AED0BF0B2
:100018007C80D8CF08F1E8CF09F1E0CF0AF1FACF18
:100028000BF1FBCF0CF1E9CF0DF1EACF0EF1E1CFE7
:100038000FF1E2CF10F1D9CF11F1DACF12F1F3CFEE
:1000480013F1F4CF14F1F6CF15F1F7CF16F1F8CF7D
:1000580017F1F5CF18F1F2A234EF00F036EF00F007
:100068003FEF00F0F2A83BEF00F03DEF00F03FEF6C
:1000780000F096EC2AF0F0A044EF00F046EF00F014
:1000880056EF00F0F0A64BEF00F04DEF00F056EF02
:1000980000F0F0BC52EF00F054EF00F056EF00F023
:1000A8007EEC2AF0F0A25BEF00F05DEF00F06DEF60
:1000B80000F0F0A862EF00F064EF00F06DEF00F0E0
:1000C800F0BE69EF00F06BEF00F06DEF00F066EC4A
:1000D8002AF0F2A072EF00F074EF00F093EF00F056
:1000E800F2A679EF00F07BEF00F093EF00F0F190CB
:1000F80081B881EF00F084EF00F0010E85EF00F089
:10010800000E7518D8B48BEF00F08DEF00F093EF68
:1001180000F0000E81B8010E756E7DEC2BF0F2A098
:1001280098EF00F09AEF00F0B9EF00F0F2A69FEF19
:1001380000F0A1EF00F0B9EF00F0F19081BAA7EF5D
:1001480000F0AAEF00F0010EABEF00F0000E7418FB
:10015800D8B4B1EF00F0B3EF00F0B9EF00F0000E43
:1001680081BA010E746E7BEC2BF0F2A0BEEF00F0AA
:10017800C0EF00F0DFEF00F0F2A6C5EF00F0C7EF28
:1001880000F0DFEF00F0F19081BCCDEF00F0D0EF90
:1001980000F0010ED1EF00F0000E7318D8B4D7EFBD
:1001A80000F0D9EF00F0DFEF00F0000E81BC010E87
:1001B800736E79EC2BF0F2A0E4EF00F0E6EF00F0BC
:1001C80005EF01F0F2A6EBEF00F0EDEF00F005EF20
:1001D80001F0F19081BEF3EF00F0F6EF00F0010EB0
:1001E800F7EF00F0000E7218D8B4FDEF00F0FFEF43
:1001F80000F005EF01F0000E81BE010E726E77EC83
:100208002BF09EAC0AEF01F00CEF01F01CEF01F0AF
:100218009DAC11EF01F013EF01F01CEF01F09FBC52
:1002280018EF01F01AEF01F01CEF01F083EC2BF04E
:10023800F2A421EF01F023EF01F033EF01F0F2AA6D
:1002480028EF01F02AEF01F033EF01F0F1B42FEFBE
:1002580001F031EF01F033EF01F05BEC2BF09EA0E1
:1002680038EF01F03AEF01F04AEF01F09DA03FEFBF
:1002780001F041EF01F04AEF01F09FB046EF01F0C5
:1002880048EF01F04AEF01F075EC2BF09EA24FEF1A
:1002980001F051EF01F061EF01F09DA256EF01F07E
:1002A80058EF01F061EF01F09FB25DEF01F05FEFF1
:1002B80001F061EF01F067EC2BF0A1A266EF01F00D
:1002C80068EF01F079EF01F0A0A26DEF01F06FEF98
:1002D80001F079EF01F0A2B274EF01F076EF01F0CE
:1002E80079EF01F098EC2BF0A1929EA47EEF01F03B
:1002F80080EF01F090EF01F09DA485EF01F087EF0A
:1003080001F090EF01F09FB48CEF01F08EEF01F057
:1003180090EF01F081EC2BF0A1A095EF01F097EFA1
:1003280001F0A7EF01F0A0A09CEF01F09EEF01F013
:10033800A7EF01F0A2B0A3EF01F0A5EF01F0A7EF3E
:1003480001F07FEC2BF09EA8ACEF01F0AEEF01F0CE
:10035800BEEF01F09DA8B3EF01F0B5EF01F0BEEFDD
:1003680001F09FB8BAEF01F0BCEF01F0BEEF01F069
:1003780041EC2BF09EAAC3EF01F0C5EF01F0D5EFD9
:1003880001F09DAACAEF01F0CCEF01F0D5EF01F022
:100398009FBAD1EF01F0D3EF01F0D5EF01F0F6EC01
:1003A8002AF09EA6DAEF01F0DCEF01F0ECEF01F0A5
:1003B8009DA6E1EF01F0E3EF01F0ECEF01F09FB64D
:1003C800E8EF01F0EAEF01F0ECEF01F06FEC2BF051
:1003D80018C1F5FF17C1F8FF16C1F7FF15C1F6FFE1
:1003E80014C1F4FF13C1F3FF12C1DAFF11C1D9FF21
:1003F80010C1E2FF0FC1E1FF0EC1EAFF0DC1E9FF25
:100408000CC1FBFF0BC1FAFF0AC1E0FF09C1E8FFFD
:0C04180008C1D8FF7C9010006CEF21F0B0
:101000000043555245454E54206672657175656EB4
:1010100063793A00547269616E676C652077617616
:1010200065666F726D0063757272656E74206672AC
:10103000657175656E6379005371756172652077AE
:10104000617665666F726D0043686F6F7365206FC0
:101050007074696F6E3A0043757272656E74206DBC
:101060006F64653A00547269616E676C65207761E0
:1010700076650053696E652077617665666F726D7F
:101080000053717561726520776176650053696EF2
:0B10900065207761766500256900008F
:10109C00010132513311D8A456EF08F058EF08F083
:1010AC005BEF08F0526B57EF0BF020EE08F032516B
:1010BC00D9263351DA22DF8E20EE08F03251D926B0
:1010CC003351DA22DF9C20EE04F03251D926335111
:1010DC00DA22DE6ADD6A20EE06F03251D92633516F
:1010EC00DA22DF9E20EE06F03251D9263351DA2275
:1010FC00DF30E832E8320F0B020AD8B488EF08F080
:10110C008AEF08F0B0EF08F020EE06F03251D92645
:10111C003351DA22DF30E832E8320F0BE806D8B46C
:10112C009AEF08F09CEF08F0B0EF08F020EE06F014
:10113C003251D9263351DA22DF30E832E8320F0B44
:10114C000009D8B4ACEF08F0AEEF08F0B0EF08F03F
:10115C0058EF08F0506B040E3225276F000E332128
:10116C00286F53EC12F00009D8B4BFEF08F0C1EFB0
:10117C0008F0C4EF08F0010E0101506F50C152F19C
:10118C000101516B5251D8B4CEEF08F0D0EF08F0FA
:10119C00E3EF08F0080E3225236F000E3321246F85
:1011AC0082EC20F00009D8B4DEEF08F0E0EF08F094
:1011BC00E3EF08F0010E0101516F51C152F132C140
:1011CC00D9FF33C1DAFFDECF34F1DECF35F1DECF1C
:1011DC0036F1DECF37F101013451386F3551396FAB
:1011EC0036513A6F37513B6F3C6B3D6B3E6B3F6BEF
:1011FC00D8903835406F3935416F3A35426F3B35B1
:10120C00436F3C35446F3D35456F3E35466F3F353A
:10121C00476F1C0ED890403741374237433744371D
:10122C00453746374737E82E10EF09F040C119F122
:10123C0041C11AF142C11BF143C11CF144C11DF162
:10124C0045C11EF146C11FF147C120F1400E216F6F
:10125C00780E226F7D0E236F010E246F000E256F0A
:10126C00000E266F000E276F000E286F93EC17F000
:10127C0019C148F11AC149F11BC14AF11CC14BF10A
:10128C001DC14CF11EC14DF11FC14EF120C14FF1DA
:10129C0048C17BF149C17CF14AC17DF14BC17EF162
:1012AC00010120EE07F03251D9263351DA22DE0447
:1012BC00D8A463EF09F065EF09F0BDEF09F020EE5B
:1012CC0007F03251D9263351DA22DF50876F32C101
:1012DC0022F133C123F1210E256F200E246F90ECE7
:1012EC0024F032C122F133C123F1FF0E01017B1531
:1012FC00346F3F0E7C15356F000E3411246F400E89
:10130C003511256F90EC24F032C122F133C123F159
:10131C007BC134F17CC135F17DC136F17EC137F131
:10132C000F0E9FEF09F00101D89037333633353368
:10133C003433E82E99EF09F0FF0E3415386F3F0E59
:10134C003515396F000E3811246F400E3911256F89
:10135C0090EC24F032C122F133C123F1200E0101B3
:10136C00256F200E246F90EC24F057EF0BF020EE3D
:10137C0007F03251D9263351DA22020EDE18D8A4E6
:10138C00CAEF09F0CCEF09F024EF0AF020EE07F0D9
:10139C003251D9263351DA22DF50876F32C122F114
:1013AC0033C123F1210E256F280E246F90EC24F00D
:1013BC0032C122F133C123F1FF0E01017B15346FD1
:1013CC003F0E7C15356F000E3411246F400E351115
:1013DC00256F90EC24F032C122F133C123F17BC193
:1013EC0034F17CC135F17DC136F17EC137F10F0E80
:1013FC0006EF0AF00101D8903733363335333433E6
:10140C00E82E00EF0AF0FF0E3415386F3F0E35153D
:10141C00396F000E3811246F400E3911256F90EC86
:10142C0024F032C122F133C123F1200E0101256FCA
:10143C00280E246F90EC24F057EF0BF020EE07F001
:10144C003251D9263351DA22030EDE18D8A431EFEB
:10145C000AF033EF0AF08BEF0AF020EE07F032516E
:10146C00D9263351DA22DF50876F32C122F133C1D2
:10147C0023F1210E256F000E246F90EC24F032C165
:10148C0022F133C123F1FF0E01017B15346F3F0EA6
:10149C007C15356F000E3411246F400E3511256FFD
:1014AC0090EC24F032C122F133C123F17BC134F131
:1014BC007CC135F17DC136F17EC137F10F0E6DEF78
:1014CC000AF00101D8903733363335333433E82EF4
:1014DC0067EF0AF0FF0E3415386F3F0E3515396F74
:1014EC00000E3811246F400E3911256F90EC24F04A
:1014FC0032C122F133C123F1200E0101256F000E00
:10150C00246F90EC24F057EF0BF020EE07F03251E3
:10151C00D9263351DA22040EDE18D8A498EF0AF03B
:10152C009AEF0AF0F2EF0AF020EE07F03251D926CA
:10153C003351DA22DF50876F32C122F133C123F1EC
:10154C00210E256F080E246F90EC24F032C122F18D
:10155C0033C123F1FF0E01017B15346F3F0E7C1557
:10156C00356F000E3411246F400E3511256F90EC41
:10157C0024F032C122F133C123F17BC134F17CC19F
:10158C0035F17DC136F17EC137F10F0ED4EF0AF083
:10159C000101D8903733363335333433E82ECEEF60
:1015AC000AF0FF0E3415386F3F0E3515396F000EEB
:1015BC003811246F400E3911256F90EC24F032C194
:1015CC0022F133C123F1200E0101256F080E246F87
:1015DC0090EC24F057EF0BF020EE07F03251D926A7
:1015EC003351DA22050EDE18D8A4FFEF0AF001EF12
:1015FC000BF058EF08F020EE07F03251D92633519A
:10160C00DA22DF50876F32C122F133C123F1210E70
:10161C00256F020E246F90EC24F032C122F133C1FD
:10162C0023F1FF0E01017B15346F3F0E7C15356FD6
:10163C00000E3411246F400E3511256F90EC24F000
:10164C0032C122F133C123F17BC134F17CC135F1BC
:10165C007DC136F17EC137F10F0E3BEF0BF001016E
:10166C00D8903733363335333433E82E35EF0BF02F
:10167C00FF0E3415386F3F0E3515396F000E3811CB
:10168C00246F400E3911256F90EC24F032C122F1F9
:10169C0033C123F1200E0101256F020E246F90EC53
:1016AC0024F00101525112000600FACF80F0FBCF5A
:1016BC0081F0E9CF82F0EACF83F0E1CF84F0E2CF82
:1016CC0085F0D9CF86F0DACF87F0F3CF88F0F4CF5E
:1016DC0089F0F6CF8AF0F7CF8BF0F8CF8CF0F5CFFE
:1016EC008DF0F2A27CEF0BF07EEF0BF087EF0BF09E
:1016FC00F2A883EF0BF085EF0BF087EF0BF0DEEC2D
:10170C002AF0F0A08CEF0BF08EEF0BF09EEF0BF0AD
:10171C00F0A693EF0BF095EF0BF09EEF0BF0F0AC07
:10172C009AEF0BF09CEF0BF09EEF0BF0C6EC2AF04F
:10173C00F0A2A3EF0BF0A5EF0BF0B5EF0BF0F0A8B8
:10174C00AAEF0BF0ACEF0BF0B5EF0BF0F0AEB1EF86
:10175C000BF0B3EF0BF0B5EF0BF0AEEC2AF0F2A000
:10176C00BAEF0BF0BCEF0BF0C4EF0BF0F2A6C1EF2D
:10177C000BF0C3EF0BF0C4EF0BF0F190F2A0C9EF3C
:10178C000BF0CBEF0BF0D3EF0BF0F2A6D0EF0BF08E
:10179C00D2EF0BF0D3EF0BF0F190F2A0D8EF0BF0EF
:1017AC00DAEF0BF0E2EF0BF0F2A6DFEF0BF0E1EF6C
:1017BC000BF0E2EF0BF0F190F2A0E7EF0BF0E9EF9A
:1017CC000BF0F1EF0BF0F2A6EEEF0BF0F0EF0BF0ED
:1017DC00F1EF0BF0F1909EACF6EF0BF0F8EF0BF095
:1017EC0008EF0CF09DACFDEF0BF0FFEF0BF008EFEA
:1017FC000CF09FAC04EF0CF006EF0CF008EF0CF0C3
:10180C0093EC2BF0F2A40DEF0CF00FEF0CF01FEF9C
:10181C000CF0F2AA14EF0CF016EF0CF01FEF0CF01A
:10182C00F1A41BEF0CF01DEF0CF01FEF0CF061ECB2
:10183C002BF09EA024EF0CF026EF0CF036EF0CF002
:10184C009DA02BEF0CF02DEF0CF036EF0CF09FA0C1
:10185C0032EF0CF034EF0CF036EF0CF085EC2BF093
:10186C009EA23BEF0CF03DEF0CF04DEF0CF09DA267
:10187C0042EF0CF044EF0CF04DEF0CF09FA249EF4F
:10188C000CF04BEF0CF04DEF0CF06BEC2BF0A1A22D
:10189C0052EF0CF054EF0CF065EF0CF0A0A259EFE6
:1018AC000CF05BEF0CF065EF0CF0A2A260EF0CF00B
:1018BC0062EF0CF065EF0CF09AEC2BF0A1929EA469
:1018CC006AEF0CF06CEF0CF07CEF0CF09DA471EF58
:1018DC000CF073EF0CF07CEF0CF09FA478EF0CF095
:1018EC007AEF0CF07CEF0CF091EC2BF0A1A081EFD7
:1018FC000CF083EF0CF093EF0CF0A0A088EF0CF041
:10190C008AEF0CF093EF0CF0A2A08FEF0CF091EF9C
:10191C000CF093EF0CF08FEC2BF09EA898EF0CF0E2
:10192C009AEF0CF0AAEF0CF09DA89FEF0CF0A1EF32
:10193C000CF0AAEF0CF09FA8A6EF0CF0A8EF0CF09F
:10194C00AAEF0CF04EEC2BF09EAAAFEF0CF0B1EF1F
:10195C000CF0C1EF0CF09DAAB6EF0CF0B8EF0CF048
:10196C00C1EF0CF09FAABDEF0CF0BFEF0CF0C1EF74
:10197C000CF00BEC2BF09EA6C6EF0CF0C8EF0CF0A5
:10198C00D8EF0CF09DA6CDEF0CF0CFEF0CF0D8EF0C
:10199C000CF09FA6D4EF0CF0D6EF0CF0D8EF0CF0B7
:1019AC0072EC2BF08DC0F5FF8CC0F8FF8BC0F7FFED
:1019BC008AC0F6FF89C0F4FF88C0F3FF87C0DAFF46
:1019CC0086C0D9FF85C0E2FF84C0E1FF83C0EAFF77
:1019DC0082C0E9FF81C0FBFF80C0FAFF7C9211003E
:1019EC007CA2FBEF0CF037EF0EF07050D8A401EF97
:1019FC000DF003EF0DF070EF0DF0010E706EB80EE0
:101A0C000001A06F010EA16F010EA26F03EC1CF080
:101A1C00B80E0001A96F010EAA6F480EAB6FAB5147
:101A2C00D8A4100EAC6F010EAD6F010EAE6F22EC90
:101A3C0025F0B80E0001A96F010EAA6F810EAB6FD5
:101A4C00AB51D8A4100EAC6F020EAD6F020EAE6F80
:101A5C0022EC25F0B80E0001A96F010EAA6F650EDD
:101A6C00AB6FAB51D8A4100EAC6F030EAD6F020E62
:101A7C00AE6F22EC25F0B80E0001A96F010EAA6F13
:101A8C008D0EAB6FAB51D8A4100EAC6F040EAD6FB6
:101A9C00020EAE6F22EC25F0B80E0001AF6F010EF6
:101AAC00B06FD90EB16F020EB26F010EB36F010E93
:101ABC00B46F83EC22F0B80E0001A46F010EA56F79
:101ACC00020EA66F010EA76F39EC1FF0020E6F6E9F
:101ADC0036EF0EF07004D8A476EF0DF078EF0DF021
:101AEC0036EF0EF0706AB80E0001A06F010EA16FF8
:101AFC00010EA26F03EC1CF0B80E0001A96F010ED1
:101B0C00AA6F570EAB6FAB51D8A4100EAC6F010E71
:101B1C00AD6F010EAE6F22EC25F0796E020E6F18D0
:101B2C00D8A49BEF0DF09DEF0DF0C4EF0DF0B80EA7
:101B3C000001A96F010EAA6F380EAB6FAB51D8A480
:101B4C00100EAC6F020EAD6F010EAE6F22EC25F0D5
:101B5C00796EAF0E00019B6F010E9C6F24EC29F087
:101B6C00796E0101946B000E00018F6F010E8E6F68
:101B7C0094C190F0E0EC26F014EF0EF0030E6F1809
:101B8C00D8A4CBEF0DF0CDEF0DF0ECEF0DF0B80EBF
:101B9C000001A96F010EAA6F140EAB6FAB51D8A444
:101BAC00100EAC6F020EAD6F010EAE6F22EC25F075
:101BBC00796EAF0E00019B6F010E9C6F08EC29F043
:101BCC00796E010E0101946FB9EF0DF0040E6F18D0
:101BDC00D8A4F3EF0DF0F5EF0DF014EF0EF0B80EF6
:101BEC000001A96F010EAA6F730EAB6FAB51D8A495
:101BFC00100EAC6F020EAD6F010EAE6F22EC25F025
:101C0C00796EAF0E00019B6F010E9C6F40EC29F0BA
:101C1C00796E020E0101946FB9EF0DF0B80E000150
:101C2C00A96F010EAA6F260EAB6FAB51D8A4100E84
:101C3C00AC6F030EAD6F010EAE6F22EC25F0B80E3B
:101C4C000101006F010E016F77C002F178C003F142
:101C5C00046B056B040E066F010E076F70EC26F01B
:101C6C0012007050D8A43DEF0EF03FEF0EF0A5EF30
:101C7C000EF0010E706EB80E136E010E146E010E86
:101C8C00156E28EC1DF0B80E1C6E010E1D6E480E64
:101C9C001E6E1E50D8A4100E1F6E010E206E010E6B
:101CAC00216E7EEC25F0B80E1C6E010E1D6E810EA1
:101CBC001E6E1E50D8A4100E1F6E020E206E020E49
:101CCC00216E7EEC25F0B80E1C6E010E1D6E650E9D
:101CDC001E6E1E50D8A4100E1F6E030E206E020E28
:101CEC00216E7EEC25F0B80E1C6E010E1D6E8D0E55
:101CFC001E6E1E50D8A4100E1F6E040E206E020E07
:101D0C00216E7EEC25F0B80E226E010E236ED90EDC
:101D1C00246E020E256E010E266E010E276EC7EC88
:101D2C0022F0B80E176E010E186E020E196E010E0F
:101D3C001A6E31EC20F0020E6F6E60EF0FF0700433
:101D4C00D8A4ABEF0EF0ADEF0EF060EF0FF0706AB1
:101D5C00B80E136E010E146E010E156E28EC1DF0EC
:101D6C00B80E1C6E010E1D6E570E1E6E1E50D8A4A2
:101D7C00100E1F6E010E206E010E216E7EEC25F0F2
:101D8C00796E020E6F18D8A4CEEF0EF0D0EF0EF0D5
:101D9C00F4EF0EF0B80E1C6E010E1D6E380E1E6E9A
:101DAC001E50D8A4100E1F6E020E206E010E216E56
:101DBC007EEC25F0796EAF0E0E6E010E0F6E19ECE7
:101DCC002AF0796E0101946B000E026E010E016E09
:101DDC0094C103F0D4EC27F040EF0FF0030E6F1812
:101DEC00D8A4FBEF0EF0FDEF0EF01AEF0FF0B80ECB
:101DFC001C6E010E1D6E140E1E6E1E50D8A4100EFD
:101E0C001F6E020E206E010E216E7EEC25F0796E97
:101E1C00AF0E0E6E010E0F6EFFEC29F0796E010EF7
:101E2C000101946FEAEF0EF0040E6F18D8A421EFA5
:101E3C000FF023EF0FF040EF0FF0B80E1C6E010EF9
:101E4C001D6E730E1E6E1E50D8A4100E1F6E020E49
:101E5C00206E010E216E7EEC25F0796EAF0E0E6EAB
:101E6C00010E0F6E33EC2AF0796E020E0101946FA5
:101E7C00EAEF0EF0B80E1C6E010E1D6E260E1E6ED5
:101E8C001E50D8A4100E1F6E030E206E010E216E74
:101E9C007EEC25F0B80E386E010E396E77C03AF034
:101EAC0078C03BF03C6A3D6A040E3E6E010E3F6EFC
:101EBC0004EC27F0120025C1D9FF26C1DAFFDFCFD1
:101ECC00F6FF100EF76EF86A0800F550250AD8A434
:101EDC0072EF0FF074EF0FF047EF10F025C1D9FF40
:101EEC0026C1DAFFDF2A000E416E000E406E40C0A4
:101EFC006EF04268436825C1D9FF26C1DAFFDF5076
:101F0C0001012C6F2CC1F6FF100EF76EF86A080059
:101F1C00F550640AD8B495EF0FF097EF0FF0A6EFD9
:101F2C000FF02CC1F6FF100EF76EF86A0800F55092
:101F3C00690AD8A4A4EF0FF0A6EF0FF040EF10F051
:101F4C0027C1D9FF28C1DAFFDFCF29F1020EDE2627
:101F5C00DFCF2AF1000EDD2229C1D9FF2AC1DAFF19
:101F6C00DECF2DF1DDCF2EF12C2925C1D9FF26C1D5
:101F7C00DAFFDF6E200E316F2EBFC7EF0FF0CAEF06
:101F8C000FF0010ECBEF0FF0000E2B6F31075B0E35
:101F9C003125D96EDA6A010EDA222DC119F12EC162
:101FAC001AF1000E1C6F0A0E1B6FDCEC1DF019C130
:101FBC001FF11AC120F194EC29F001011F51300FCF
:101FCC00DF6E2DC119F12EC11AF1000E1C6F0A0E15
:101FDC001B6F7BEC1AF019C12DF11AC12EF1010106
:101FEC002D512E11D8B4FDEF0FF0FFEF0FF007EFCE
:101FFC0010F03151D8A405EF10F007EF10F0CCEF32
:10200C000FF03151D8B40DEF10F00FEF10F035EF99
:10201C0010F02B51D8B415EF10F017EF10F035EF7E
:10202C0010F031075B0E3125D96EDA6A010EDA2217
:10203C002D0EDF6E35EF10F05B0E3125D96EDA6A9E
:10204C00010EDA22DF50296F2951196F1A6B23C147
:10205C001BF124C11CF180EC18F00101312B200E76
:10206C003119D8A43CEF10F03EEF10F022EF10F035
:10207C005DEF10F025C1D9FF26C1DAFFDF2A5DEF35
:10208C0010F025C1D9FF26C1DAFFDFCFF6FF100E05
:10209C00F76EF86A0800F5500101196F1A6B23C12D
:1020AC001BF124C11CF180EC18F040EF10F0120071
:1020BC009AC0D9FF9BC0DAFFDFCFF6FF100EF76E88
:1020CC00F86A0800F550250AD8A46FEF10F071EFEC
:1020DC0010F044EF11F09AC0D9FF9BC0DAFFDF2A51
:1020EC00000E416E000E406E40C06EF042684368B8
:1020FC009AC0D9FF9BC0DAFFDF500001A16FA1C0CD
:10210C00F6FF100EF76EF86A0800F550640AD8B4A2
:10211C0092EF10F094EF10F0A3EF10F0A1C0F6FFC7
:10212C00100EF76EF86A0800F550690AD8A4A1EFF2
:10213C0010F0A3EF10F03DEF11F09CC0D9FF9DC043
:10214C00DAFFDFCF9EF0020EDE26DFCF9FF0000E0F
:10215C00DD229EC0D9FF9FC0DAFFDECFA2F0DDCF1B
:10216C00A3F0A1299AC0D9FF9BC0DAFFDF6E200E25
:10217C00A66FA3BFC4EF10F0C7EF10F0010EC8EFAD
:10218C0010F0000EA06FA6075B0EA625D96EDA6ABA
:10219C00010EDA22A2C08EF0A3C08FF0000E916F58
:1021AC000A0E906F34EC1EF08EC094F08FC095F038
:1021BC00AFEC29F000019451300FDF6EA2C08EF00D
:1021CC00A3C08FF0000E916F0A0E906FA1EC1BF064
:1021DC008EC0A2F08FC0A3F00001A251A311D8B4FD
:1021EC00FAEF10F0FCEF10F004EF11F0A651D8A4A8
:1021FC0002EF11F004EF11F0C9EF10F0A651D8B4B2
:10220C000AEF11F00CEF11F032EF11F0A051D8B42D
:10221C0012EF11F014EF11F032EF11F0A6075B0E74
:10222C00A625D96EDA6A010EDA222D0EDF6E32EF98
:10223C0011F05B0EA625D96EDA6A010EDA22DF5098
:10224C009E6F9E518E6F8F6B98C090F099C091F0DD
:10225C00E6EC18F00001A62B200EA619D8A439EF35
:10226C0011F03BEF11F01FEF11F05AEF11F09AC083
:10227C00D9FF9BC0DAFFDF2A5AEF11F09AC0D9FFC1
:10228C009BC0DAFFDFCFF6FF100EF76EF86A08007E
:10229C00F55000018E6F8F6B98C090F099C091F043
:1022AC00E6EC18F03DEF11F012000DC0D9FF0EC096
:1022BC00DAFFDFCFF6FF100EF76EF86A0800F55064
:1022CC00250AD8A46CEF11F06EEF11F03DEF12F06F
:1022DC000DC0D9FF0EC0DAFFDF2A000E416E000ED2
:1022EC00406E40C06EF0426843680DC0D9FF0EC00E
:1022FC00DAFFDF50146E14C0F6FF100EF76EF86A9A
:10230C000800F550640AD8B48EEF11F090EF11F07C
:10231C009FEF11F014C0F6FF100EF76EF86A08006C
:10232C00F550690AD8A49DEF11F09FEF11F036EF2C
:10233C0012F00FC0D9FF10C0DAFFDFCF11F0020E80
:10234C00DE26DFCF12F0000EDD2211C0D9FF12C045
:10235C00DAFFDECF15F0DDCF16F014280DC0D9FF53
:10236C000EC0DAFFDF6E200E196E16BEC0EF11F034
:10237C00C3EF11F0010EC4EF11F0000E136E19062D
:10238C005B0E1924D96EDA6A010EDA2215C001F03F
:10239C0016C002F0000E046E0A0E036E8CEC1EF0DA
:1023AC0001C007F002C008F0E5EC29F00750300F2F
:1023BC00DF6E15C001F016C002F0000E046E0A0E9E
:1023CC00036EC7EC1CF001C015F002C016F01550DE
:1023DC001610D8B4F4EF11F0F6EF11F0FEEF11F087
:1023EC001950D8A4FCEF11F0FEEF11F0C5EF11F06D
:1023FC001950D8B404EF12F006EF12F02BEF12F0D4
:10240C001350D8B40CEF12F00EEF12F02BEF12F0B9
:10241C0019065B0E1924D96EDA6A010EDA222D0E1A
:10242C00DF6E2BEF12F05B0E1924D96EDA6A010EF7
:10243C00DA22DF50116E1150016E026A0BC003F0EC
:10244C000CC004F016EC1AF0192A200E1918D8A496
:10245C0032EF12F034EF12F019EF12F052EF12F0DB
:10246C000DC0D9FF0EC0DAFFDF2A52EF12F00DC0FB
:10247C00D9FF0EC0DAFFDFCFF6FF100EF76EF86A49
:10248C000800F550016E026A0BC003F00CC004F09A
:10249C0016EC1AF036EF12F01200010E01012A6F41
:1024AC0027512811D8A45DEF12F05FEF12F062EF04
:1024BC0012F02A6B46EF13F0C69AC78EC79CC688DB
:1024CC0020EE02F02751D9262851DA22DF30E832EB
:1024DC00E8320F0B020AD8B476EF12F078EF12F054
:1024EC009CEF12F020EE02F02751D9262851DA2267
:1024FC00DF30E832E8320F0BE806D8B488EF12F080
:10250C008AEF12F09CEF12F020EE02F02751D92640
:10251C002851DA22DF30E832E8320F0B0009D8A458
:10252C009AEF12F09CEF12F0C4EF12F0BF9DBE9D1B
:10253C0020EE02F02751D9262851DA22DF30E8327A
:10254C00E8320F0B296FC6502919F00B2919C66EEA
:10255C00BF0E236F010E246F82EC20F0C00E010120
:10256C00236F010E246F82EC20F0BE0E0101236F4D
:10257C00010E246F82EC20F019EF13F020EE02F024
:10258C002751D9262851DA22DF30E832E8320F0BF6
:10259C00050AD8B4D4EF12F0D6EF12F0E8EF12F02F
:1025AC0020EE02F02751D9262851DA22DF30E8320A
:1025BC00E8320F0B040AD8A4E6EF12F0E8EF12F0A1
:1025CC0016EF13F0BF8D20EE02F02751D9262851BB
:1025DC00DA22DF30E832E8320F0B296FC6502919A6
:1025EC00F00B2919C66EBF0E236F010E246F82ECFF
:1025FC0020F001012A6F20EE02F02751D926285134
:10260C00DA22DF30E832E8320F0B050AD8A411EFDA
:10261C0013F013EF13F019EF13F0BE8DBBEF12F0A4
:10262C002A6B19EF13F0010120EE02F02751D92685
:10263C002851DA22DFAE25EF13F027EF13F045EF28
:10264C0013F09D9627C1D9FF28C1DAFFDECF7FF1A9
:10265C00DDCF80F1F28EF28CF28EF28C20EE02F055
:10266C002751D9262851DA22DFA03FEF13F041EF92
:10267C0013F044EF13F09F8645EF13F09F96C68A34
:10268C002A511200940E0101196F010E1A6F010EDE
:10269C006EEC27F0796EB80E01012F6F010E306FC2
:1026AC0035EC14F0796E4DEC2AF0796E770E010151
:1026BC001D6F030EFCEC25F077C0AFF178C0B0F1C4
:1026CC000101B16BB26BB80E346F010E356F570E42
:1026DC00366F3651D8A4100E376F010E386F010EBD
:1026EC00396FF4EC24F0796E01019451D8A481EF88
:1026FC0013F083EF13F0A0EF13F0010EB66FAF0ED3
:10270C00326F010E336F4EEC08F0796EB80E01018A
:10271C00346F010E356F380E366F3651D8A4100E4B
:10272C00376F020E386F010E396FF4EC24F0796EAE
:10273C0006EF14F09405D8A4A6EF13F0A8EF13F04D
:10274C00C5EF13F0050EB66FAF0E326F010E336F7F
:10275C004EEC08F0796EB80E0101346F010E356F36
:10276C00140E366F3651D8A4100E376F020E386F18
:10277C00010E396FF4EC24F0796E06EF14F0020EB2
:10278C009419D8A4CCEF13F0CEEF13F0EBEF13F0B9
:10279C00030EB66FAF0E326F010E336F4EEC08F0B6
:1027AC00796EB80E0101346F010E356F730E366FF2
:1027BC003651D8A4100E376F020E386F010E396FD8
:1027CC00F4EC24F0796E06EF14F0010EB66FAF0E38
:1027DC00326F010E336F4EEC08F0796EB80E0101BA
:1027EC00346F010E356F380E366F3651D8A4100E7B
:1027FC00376F020E386F010E396FF4EC24F0796EDE
:10280C00B80E0101346F010E356F010E366F365163
:10281C00D8A4100E376F030E386F010E396FF4EC1D
:10282C0024F0796EB80E0101506F010E516F77C014
:10283C0052F178C053F1546B556B040E566F010E68
:10284C00576FAAEC25F0796EE60E01012A6F3FEC6A
:10285C0022F0E10E01012A6F3FEC22F0120001017F
:10286C002F513011D8A43DEF14F03FEF14F042EF8C
:10287C0014F0346B04EF15F02FC119F130C11AF1BB
:10288C00000E1B6F06EC15F00101346F2FC119F10E
:10289C0030C11AF1000E1B6FB0EC15F00101346F52
:1028AC00010E2F25196F000E30211A6F000E1B6FB1
:1028BC0006EC15F00101346F010E2F25196F000E77
:1028CC0030211A6F000E1B6FB0EC15F00101346F44
:1028DC00336B33512F25316F000E3021326F020EC6
:1028EC003125196F000E32211A6F000E1B6F06EC8A
:1028FC0015F00101346F33512F25316F000E30214B
:10290C00326F020E3125196F000E32211A6F000E34
:10291C001B6F06EC15F00101346F332B030E33657E
:10292C009AEF14F09CEF14F06FEF14F0340E0101D9
:10293C00316FF10EE82EFED7312FFCD700D02FC10E
:10294C002BF130C12CF1380E01012D6F3FEC1BF037
:10295C000D0E0101316FFB0EE82EFED7312FFCD787
:10296C0000D02FC12BF130C12CF1380E01012D6F8D
:10297C003FEC1BF0640EE82EFED72FC12BF130C1BB
:10298C002CF1380E01012D6F3FEC1BF02FC12BF1F8
:10299C0030C12CF1010E01012D6F3FEC1BF02FC14A
:1029AC002BF130C12CF1020E01012D6F3FEC1BF00D
:1029BC002FC12BF130C12CF1060E01012D6F3FEC14
:1029CC001BF02FC12BF130C12CF10C0E01012D6F1E
:1029DC003FEC1BF02FC12BF130C12CF1280E010163
:1029EC002D6F3FEC1BF02FC12BF130C12CF1800E61
:1029FC0001012D6F3FEC1BF00101346F34511200BB
:102A0C00010E0101226F19511A11D8B410EF15F0F3
:102A1C0012EF15F032EF15F019C1D9FF1AC1DAFF18
:102A2C00DF50070B1C6F050E1C611FEF15F021EF1B
:102A3C0015F032EF15F019C1D9FF1AC1DAFFDF30EA
:102A4C00E832E832070B1C6F070E1C6530EF15F0EF
:102A5C0032EF15F035EF15F0226BAEEF15F01B5180
:102A6C00D8A43BEF15F03DEF15F074EF15F019C13C
:102A7C00D9FF1AC1DAFFDF30E832E832070B1C6FDE
:102A8C00010E1D6F1C2B4DEF15F0D8901D371C2F10
:102A9C004BEF15F001011D51FF0A1E6F19C1D9FF33
:102AAC001AC1DAFFDF50070B1F6F1F51020DA50E65
:102ABC00F324D96E010EF420DA6EDECF20F1DDCFD7
:102ACC0021F120C1D9FF21C1DAFF1E51DF1619C136
:102ADC00D9FF1AC1DAFFDF9CAEEF15F01B05D8A4A5
:102AEC007AEF15F07CEF15F032EF15F019C1D9FF24
:102AFC001AC1DAFFDF30E832E832070B1C6F010E27
:102B0C001D6F1C2B8CEF15F0D8901D371C2F8AEFE6
:102B1C0015F019C1D9FF1AC1DAFFDF50070B0101FB
:102B2C001E6F1E51020DA50EF324D96E010EF4205A
:102B3C00DA6EDECF1FF1DDCF20F11FC1D9FF20C12E
:102B4C00DAFF1D51DF1219C1D9FF1AC1DAFFDF8C70
:102B5C0022511200010E0101216F19511A11D8B422
:102B6C00BAEF15F0BCEF15F0DCEF15F019C1D9FF79
:102B7C001AC1DAFFDF50070B1C6F050E1C61C9EF81
:102B8C0015F0CBEF15F0DCEF15F019C1D9FF1AC118
:102B9C00DAFFDF30E832E832070B1C6F070E1C65DA
:102BAC00DAEF15F0DCEF15F0DFEF15F0216B50EFDD
:102BBC0016F01B05D8A4E5EF15F0E7EF15F017EFAD
:102BCC0016F019C1D9FF1AC1DAFFDF30E832E8324A
:102BDC00070B1C6F010E1D6F1C2BF7EF15F0D89017
:102BEC001D371C2FF5EF15F019C1D9FF1AC1DAFFEB
:102BFC00DF50070B020DF350C50FD96EDA6ADECF2A
:102C0C001EF1DDCF1FF11EC1D9FF1FC1DAFF01017B
:102C1C001D51DF1219C1D9FF1AC1DAFFDF8E50EF37
:102C2C0016F01B51D8A41DEF16F01FEF16F0DCEFB9
:102C3C0015F019C1D9FF1AC1DAFFDF30E832E832DA
:102C4C00070B1C6F010E1D6F1C2B2FEF16F0D8906D
:102C5C001D371C2F2DEF16F001011D51FF0A1E6FA1
:102C6C0019C1D9FF1AC1DAFFDF50070B020DF3505F
:102C7C00C50FD96EDA6ADECF1FF1DDCF20F11FC18F
:102C8C00D9FF20C1DAFF1E51DF1619C1D9FF1AC1B5
:102C9C00DAFFDF9E21511200010E0001966F8E515A
:102CAC008F11D8B45CEF16F05EEF16F07EEF16F0D5
:102CBC008EC0D9FF8FC0DAFFDF50070B916F050E66
:102CCC0091616BEF16F06DEF16F07EEF16F08EC083
:102CDC00D9FF8FC0DAFFDF30E832E832070B916F93
:102CEC00070E91657CEF16F07EEF16F081EF16F073
:102CFC00966BF2EF16F09005D8A487EF16F089EFDB
:102D0C0016F0B9EF16F08EC0D9FF8FC0DAFFDF30A6
:102D1C00E832E832070B916F010E926F912B99EF0D
:102D2C0016F0D8909237912F97EF16F08EC0D9FFEE
:102D3C008FC0DAFFDF50070B020DF350C50FD96EB1
:102D4C00DA6ADECF93F0DDCF94F093C0D9FF94C054
:102D5C00DAFF00019251DF128EC0D9FF8FC0DAFF6B
:102D6C00DF8EF2EF16F09051D8A4BFEF16F0C1EF42
:102D7C0016F07EEF16F08EC0D9FF8FC0DAFFDF3071
:102D8C00E832E832070B916F010E926F912BD1EF65
:102D9C0016F0D8909237912FCFEF16F00001925188
:102DAC00FF0A936F8EC0D9FF8FC0DAFFDF50070B7D
:102DBC00020DF350C50FD96EDA6ADECF94F0DDCF79
:102DCC0095F094C0D9FF95C0DAFF9351DF168EC0F1
:102DDC00D9FF8FC0DAFFDF9E96511200010E096EEB
:102DEC0001500210D8B4FDEF16F0FFEF16F01FEFF4
:102DFC0017F001C0D9FF02C0DAFFDF50070B046ED9
:102E0C00050E04600CEF17F00EEF17F01FEF17F024
:102E1C0001C0D9FF02C0DAFFDF30E832E832070B1D
:102E2C00046E070E04641DEF17F01FEF17F022EF6E
:102E3C0017F0096A91EF17F00304D8A428EF17F0E4
:102E4C002AEF17F059EF17F001C0D9FF02C0DAFFD3
:102E5C00DF30E832E832070B046E010E056E042AEF
:102E6C003AEF17F0D8900536042E38EF17F001C062
:102E7C00D9FF02C0DAFFDF50070B020DF350C50F6C
:102E8C00D96EDA6ADECF06F0DDCF07F006C0D9FFC7
:102E9C0007C0DAFF0550DF1201C0D9FF02C0DAFF0C
:102EAC00DF8E91EF17F00350D8A45FEF17F061EFAE
:102EBC0017F01FEF17F001C0D9FF02C0DAFFDF30A7
:102ECC00E832E832070B046E010E056E042A71EF2E
:102EDC0017F0D8900536042E6FEF17F00550FF0A47
:102EEC00066E01C0D9FF02C0DAFFDF50070B020DDE
:102EFC00F350C50FD96EDA6ADECF07F0DDCF08F0DC
:102F0C0007C0D9FF08C0DAFF0650DF1601C0D9FF91
:102F1C0002C0DAFFDF9E0950120021EE29F0070EE5
:102F2C00DE6AE806FDE20101215122112311241170
:102F3C002511261127112811D8B4A7EF17F0A9EFE6
:102F4C0017F0FBEF17F0010E316FB7EF17F0D890B9
:102F5C002137223723372437253726372737283789
:102F6C00312B28AFBCEF17F0BEEF17F0ADEF17F019
:102F7C00D89029372A372B372C372D372E372F3728
:102F8C0030372151195D22511A5923511B592451A3
:102F9C001C5925511D5926511E5927511F5928516D
:102FAC002059D8A0DCEF17F0DEEF17F0EFEF17F099
:102FBC002151195F22511A5B23511B5B24511C5B5D
:102FCC0025511D5B26511E5B27511F5B2851205B31
:102FDC002981D890283327332633253324332333C0
:102FEC0022332133312FBEEF17F029C119F12AC139
:102FFC001AF12BC11BF12CC11CF12DC11DF12EC1DD
:10300C001EF12FC11FF130C120F1120001011B6F05
:10301C00010E01011C6F3DEF18F092807EEF18F04D
:10302C0092827EEF18F092847EEF18F092867EEFFB
:10303C0018F0928A7EEF18F096807EEF18F0968248
:10304C007EEF18F096847EEF18F093847EEF18F0E4
:10305C0093867EEF18F093827EEF18F093887EEFC4
:10306C0018F093807EEF18F01C6B7EEF18F01B515C
:10307C00196F1A6B1A51000AD8B447EF18F03AEFCF
:10308C0018F01951000AD8B413EF18F0010AD8B48B
:10309C0016EF18F0030AD8B419EF18F0010AD8B4D7
:1030AC001CEF18F0070AD8B41FEF18F0010AD8B4B7
:1030BC0022EF18F0030AD8B425EF18F0010AD8B49F
:1030CC0028EF18F00F0AD8B42BEF18F0010AD8B477
:1030DC002EEF18F0030AD8B431EF18F0010AD8B467
:1030EC0034EF18F0070AD8B437EF18F03AEF18F0AD
:1030FC001C51120001011B511C11D8B488EF18F09F
:10310C008AEF18F093EF18F01B511C11D8A491EF13
:10311C0018F093EF18F098EF18F0195197EC2BF07A
:10312C00E5EF18F020EE09F01B51D9261C51DA22DC
:10313C00DE50DE10D8B4A5EF18F0A7EF18F0C2EFF0
:10314C0018F020EE09F01B51D9261C51DA2210EE92
:10315C0002F01B51E1261C51E222DE50E65CE650E7
:10316C00800A216FDE50800A2159D8B0C0EF18F0C8
:10317C00C2EF18F0E5EF18F020EE02F01B51D92643
:10318C001C51DA22DECF1DF1DDCF1EF11BC1D9FFA0
:10319C001CC1DAFFDECF1FF1DDCF20F11D511F2541
:1031AC00D96E1E512021DA6E19C1DFFF20EE02F01C
:1031BC001B51D9261C51DA22DE2A000EDD22120008
:1031CC00000190519111D8B4EEEF18F0F0EF18F017
:1031DC00F9EF18F090519111D8A4F7EF18F0F9EF1E
:1031EC0018F0FEEF18F08E5199EC2BF04BEF19F014
:1031FC0020EE09F09051D9269151DA22DE50DE10E2
:10320C00D8B40BEF19F00DEF19F028EF19F020EEF0
:10321C0009F09051D9269151DA2210EE02F090511A
:10322C00E1269151E222DE50E65CE650800A966F70
:10323C00DE50800A9659D8B026EF19F028EF19F015
:10324C004BEF19F020EE02F09051D9269151DA2271
:10325C00DECF92F0DDCF93F090C0D9FF91C0DAFFB2
:10326C00DECF94F0DDCF95F092519425D96E935129
:10327C009521DA6E8EC0DFFF20EE02F09051D92638
:10328C009151DA22DE2A000EDD221200010E01011C
:10329C00296F2751D8A455EF19F057EF19F05AEFB1
:1032AC0019F0296BAFEF19F0D08EF28EF28CF28CF4
:1032BC00F098F092C50E236F010E246F82EC20F073
:1032CC00010129172751D96EDA6A030ED926DF506E
:1032DC00D8A473EF19F075EF19F078EF19F0F19895
:1032EC0089EF19F02751D96EDA6A030ED926DE045C
:1032FC00D8A483EF19F085EF19F088EF19F0F18855
:10330C0089EF19F0296B2751D96EDA6A040ED92688
:10331C00DF50D8A494EF19F096EF19F099EF19F04B
:10332C00F09EA7EF19F02751D96EDA6A040ED92650
:10333C00DE04D8A4A4EF19F0A6EF19F0A7EF19F04A
:10334C00F08E2751D96EDA6ADECF81F1DDCF82F1B2
:10335C00F08829511200010E0101296F2751D8A4C0
:10336C00BAEF19F0BCEF19F0BFEF19F0296B14EF9D
:10337C001AF0D08EF28EF28CF28CF096F090C60E83
:10338C00236F010E246F82EC20F0010129172751C5
:10339C00D96EDA6A030ED926DF50D8A4D8EF19F00B
:1033AC00DAEF19F0DDEF19F0F19AEEEF19F0275181
:1033BC00D96EDA6A030ED926DE04D8A4E8EF19F028
:1033CC00EAEF19F0EDEF19F0F18AEEEF19F0296B35
:1033DC002751D96EDA6A040ED926DF50D8A4F9EF3A
:1033EC0019F0FBEF19F0FEEF19F0F09C0CEF1AF04E
:1033FC002751D96EDA6A040ED926DE04D8A409EF57
:10340C001AF00BEF1AF00CEF1AF0F08C2751D96E62
:10341C00DA6ADECF83F1DDCF84F1F0862951120018
:10342C0003500410D8B41DEF1AF01FEF1AF028EF58
:10343C001AF003500410D8A426EF1AF028EF1AF053
:10344C002DEF1AF001509BEC2BF07AEF1AF020EED6
:10345C0009F00350D9260450DA22DE50DE10D8B41D
:10346C003AEF1AF03CEF1AF057EF1AF020EE09F091
:10347C000350D9260450DA2210EE02F00350E12654
:10348C000450E222DE50E65CE650800A096EDE5003
:10349C00800A0958D8B055EF1AF057EF1AF07AEFA6
:1034AC001AF020EE02F00350D9260450DA22DECFB7
:1034BC0005F0DDCF06F003C0D9FF04C0DAFFDECF84
:1034CC0007F0DDCF08F005500724D96E0650082010
:1034DC00DA6E01C0DFFF20EE02F00350D926045053
:1034EC00DA22DE2A000EDD22120001011E6B1CBF47
:1034FC0084EF1AF082EF1AF08AEF1AF01B6D1C1F82
:10350C00D8B01C2B010E1E6F1ABF91EF1AF08FEF63
:10351C001AF097EF1AF0196D1A1FD8B01A2B010E6A
:10352C001E1B000E206F000E1F6F1B511C11D8B4F8
:10353C00A2EF1AF0A4EF1AF0CCEF1AF0010E1D6FE7
:10354C00ACEF1AF0D8901B371C371D2B1CAFB1EF0A
:10355C001AF0B3EF1AF0A8EF1AF0D8901F372037F3
:10356C001B51195D1C511A59D8A0BFEF1AF0C1EFAD
:10357C001AF0C6EF1AF01B51195F1C511A5B1F8110
:10358C00D8901C331B331D2FB3EF1AF01E51D8B437
:10359C00D2EF1AF0D4EF1AF0D8EF1AF01F6D201FEB
:1035AC00D8B0202B1FC119F120C11AF11200010152
:1035BC002B512C11D8A4E5EF1AF0E7EF1AF0EAEF33
:1035CC001AF02E6B3DEF1BF02BC119F12CC11AF127
:1035DC00010E1B6FB0EC15F001012E6F2BC122F107
:1035EC002CC123F12DC124F108EC23F001012E6F25
:1035FC00010E2B25196F000E2C211A6F010E1B6F5B
:10360C00B0EC15F001012E6F030EE82EFED7000072
:10361C00010E01012B25196F000E2C211A6F000EC3
:10362C001B6FB0EC15F02BC122F12CC123F12DC175
:10363C0024F17EEC23F0010E01012B25196F000EF5
:10364C002C211A6F010E1B6FB0EC15F0030EE82E37
:10365C00FED70000010E01012B25196F000E2C2145
:10366C001A6F000E1B6FB0EC15F001012E6F2E516E
:10367C00120001012B512C11D8A447EF1BF049EF7C
:10368C001BF04CEF1BF02E6B9FEF1BF02BC119F1B5
:10369C002CC11AF1000E1B6FB0EC15F001012E6F4E
:1036AC002BC122F12CC123F12DC124F108EC23F004
:1036BC0001012E6F010E2B25196F000E2C211A6F94
:1036CC00010E1B6FB0EC15F001012E6F030EE82EEE
:1036DC00FED70000010E01012B25196F000E2C21C5
:1036EC001A6F000E1B6FB0EC15F02BC122F12CC120
:1036FC0023F12DC124F17EEC23F0010E01012B25C9
:10370C00196F000E2C211A6F010E1B6FB0EC15F007
:10371C00030EE82EFED70000010E01012B25196FB8
:10372C00000E2C211A6F000E1B6FB0EC15F001016E
:10373C002E6F2E5112000001936B91BFAAEF1BF05C
:10374C00A8EF1BF0B0EF1BF0906D911FD8B0912B30
:10375C00010E936F8FBFB7EF1BF0B5EF1BF0BDEFF2
:10376C001BF08E6D8F1FD8B08F2B010E931B000E8C
:10377C00956F000E946F90519111D8B4C8EF1BF057
:10378C00CAEF1BF0F2EF1BF0010E926FD2EF1BF0A1
:10379C00D89090379137922B91AFD7EF1BF0D9EF90
:1037AC001BF0CEEF1BF0D8909437953790518E5D6F
:1037BC0091518F59D8A0E5EF1BF0E7EF1BF0ECEF20
:1037CC001BF090518E5F91518F5B9481D890913307
:1037DC009033922FD9EF1BF09351D8B4F8EF1BF024
:1037EC00FAEF1BF0FEEF1BF0946D951FD8B0952BE4
:1037FC0094C08EF095C08FF012000001A051A11161
:10380C00D8A40BEF1CF00DEF1CF010EF1CF0A36B09
:10381C0063EF1CF0A0C08EF0A1C08FF0000E906F73
:10382C0052EC16F00001A36FA0C097F0A1C098F065
:10383C00A2C099F043EC23F00001A36F010EA02568
:10384C008E6F000EA1218F6F010E906F52EC16F04F
:10385C000001A36F030EE82EFED70000010E00013D
:10386C00A0258E6F000EA1218F6F000E906F52EC71
:10387C0016F0A0C097F0A1C098F0A2C099F0B7ECD8
:10388C0023F0010E0001A0258E6F000EA1218F6F79
:10389C00010E906F52EC16F0030EE82EFED70000CE
:1038AC00010E0001A0258E6F000EA1218F6F000E5E
:1038BC00906F52EC16F00001A36FA351120000019F
:1038CC00A051A111D8A46DEF1CF06FEF1CF072EF9A
:1038DC001CF0A36BC5EF1CF0A0C08EF0A1C08FF044
:1038EC00010E906F52EC16F00001A36FA0C097F080
:1038FC00A1C098F0A2C099F043EC23F00001A36F93
:10390C00010EA0258E6F000EA1218F6F010E906FFE
:10391C0052EC16F00001A36F030EE82EFED7000048
:10392C00010E0001A0258E6F000EA1218F6F000EDD
:10393C00906F52EC16F0A0C097F0A1C098F0A2C006
:10394C0099F0B7EC23F0010E0001A0258E6F000E4C
:10395C00A1218F6F010E906F52EC16F0030EE82E22
:10396C00FED70000010E0001A0258E6F000EA121D4
:10397C008F6F000E906F52EC16F00001A36FA351E5
:10398C001200066A04BECFEF1CF0CDEF1CF0D5EF91
:10399C001CF0036C041ED8B0042A010E066E02BE85
:1039AC00DCEF1CF0DAEF1CF0E2EF1CF0016C021EF5
:1039BC00D8B0022A010E061A000E086E000E076E11
:1039CC0003500410D8B4EDEF1CF0EFEF1CF017EF20
:1039DC001DF0010E056EF7EF1CF0D890033604367F
:1039EC00052A04AEFCEF1CF0FEEF1CF0F3EF1CF00C
:1039FC00D890073608360350015C04500258D8A002
:103A0C000AEF1DF00CEF1DF011EF1DF00350015EDD
:103A1C000450025A0780D89004320332052EFEEF70
:103A2C001CF00650D8B41DEF1DF01FEF1DF023EF56
:103A3C001DF0076C081ED8B0082A07C001F008C09A
:103A4C0002F0120013501410D8A42FEF1DF031EF18
:103A5C001DF034EF1DF0166A80EF1DF013C001F05D
:103A6C0014C002F0000E036EF4EC16F0166E13C0C8
:103A7C000AF014C00BF015C00CF0F0EC23F0166E2D
:103A8C00010E1324016E000E1420026E010E036E43
:103A9C00F4EC16F0166E030EE82EFED70000010EA5
:103AAC001324016E000E1420026E000E036EF4EC53
:103ABC0016F013C00AF014C00BF015C00CF028EC73
:103ACC0024F0010E1324016E000E1420026E010E60
:103ADC00036EF4EC16F0030EE82EFED70000010E78
:103AEC001324016E000E1420026E000E036EF4EC13
:103AFC0016F0166E1650120013501410D8A489EF3D
:103B0C001DF08BEF1DF08EEF1DF0166ADAEF1DF035
:103B1C0013C001F014C002F0010E036EF4EC16F0A9
:103B2C00166E13C00AF014C00BF015C00CF0F0ECBC
:103B3C0023F0166E010E1324016E000E1420026E7B
:103B4C00010E036EF4EC16F0166E030EE82EFED783
:103B5C000000010E1324016E000E1420026E000EE4
:103B6C00036EF4EC16F013C00AF014C00BF015C081
:103B7C000CF028EC24F0010E1324016E000E14201E
:103B8C00026E010E036EF4EC16F0030EE82EFED757
:103B9C000000010E1324016E000E1420026E000EA4
:103BAC00036EF4EC16F0166E1650120001011E6B2B
:103BBC001ABFE5EF1DF0E3EF1DF0EBEF1DF0196DF3
:103BCC001A1FD8B01A2B010E1E6F1CBFF2EF1DF07E
:103BDC00F0EF1DF0F6EF1DF01B6D1C1FD8B01C2B69
:103BEC001B511C11D8B4FDEF1DF0FFEF1DF023EF9E
:103BFC001EF0010E1D6F07EF1EF0D8901B371C37FF
:103C0C001D2B1CAF0CEF1EF00EEF1EF003EF1EF081
:103C1C001B51195D1C511A59D8A017EF1EF019EF42
:103C2C001EF01DEF1EF01B51195F1C511A5BD89032
:103C3C001C331B331D2F0EEF1EF01E51D8B429EF71
:103C4C001EF02BEF1EF02FEF1EF0196D1A1FD8B0BF
:103C5C001A2B19C119F11AC11AF112000001936B38
:103C6C008FBF3DEF1EF03BEF1EF043EF1EF08E6D4D
:103C7C008F1FD8B08F2B010E936F91BF4AEF1EF0A0
:103C8C0048EF1EF04EEF1EF0906D911FD8B0912BA7
:103C9C0090519111D8B455EF1EF057EF1EF07BEFF9
:103CAC001EF0010E926F5FEF1EF0D8909037913797
:103CBC00922B91AF64EF1EF066EF1EF05BEF1EF0DF
:103CCC0090518E5D91518F59D8A06FEF1EF071EF0E
:103CDC001EF075EF1EF090518E5F91518F5BD89056
:103CEC0091339033922F66EF1EF09351D8B481EF3D
:103CFC001EF083EF1EF087EF1EF08E6D8F1FD8B075
:103D0C008F2B8EC08EF08FC08FF01200066A02BE11
:103D1C0094EF1EF092EF1EF09AEF1EF0016C021E53
:103D2C00D8B0022A010E066E04BEA1EF1EF09FEF62
:103D3C001EF0A5EF1EF0036C041ED8B0042A03502D
:103D4C000410D8B4ACEF1EF0AEEF1EF0D2EF1EF0A4
:103D5C00010E056EB6EF1EF0D89003360436052A18
:103D6C0004AEBBEF1EF0BDEF1EF0B2EF1EF0035021
:103D7C00015C04500258D8A0C6EF1EF0C8EF1EF02C
:103D8C00CCEF1EF00350015E0450025AD89004325E
:103D9C000332052EBDEF1EF00650D8B4D8EF1EF03E
:103DAC00DAEF1EF0DEEF1EF0016C021ED8B0022A14
:103DBC0001C001F002C002F0120001012F513011BC
:103DCC00D8A4EBEF1EF0EDEF1EF024EF1FF0336BD9
:103DDC0037EF1FF02FC12BF130C12CF132517F0F77
:103DEC002D6F3FEC1BF00101336F37EF1FF02FC12C
:103DFC002BF130C12CF13251BF0F2D6F3FEC1BF06A
:103E0C000101336F37EF1FF02FC12BF130C12CF1B3
:103E1C003251930F2D6F3FEC1BF00101336F37EFD5
:103E2C001FF02FC12BF130C12CF13251D30F2D6F5C
:103E3C003FEC1BF00101336F37EF1FF03151010ADA
:103E4C00D8B4F0EF1EF0030AD8B4FDEF1EF0010A4F
:103E5C00D8B40AEF1FF0070AD8B417EF1FF0EDEF34
:103E6C001EF0335112000001A451A511D8A441EF4A
:103E7C001FF043EF1FF07AEF1FF0A86B8DEF1FF0D0
:103E8C00A4C0A0F0A5C0A1F0A7517F0FA26F03ECB6
:103E9C001CF00001A86F8DEF1FF0A4C0A0F0A5C00E
:103EAC00A1F0A751BF0FA26F03EC1CF00001A86F8B
:103EBC008DEF1FF0A4C0A0F0A5C0A1F0A751930FE7
:103ECC00A26F03EC1CF00001A86F8DEF1FF0A4C0D3
:103EDC00A0F0A5C0A1F0A751D30FA26F03EC1CF06A
:103EEC000001A86F8DEF1FF0A651010AD8B446EF60
:103EFC001FF0030AD8B453EF1FF0010AD8B460EFD7
:103F0C001FF0070AD8B46DEF1FF043EF1FF0A85154
:103F1C001200010E0101336F2F513011D8B499EFFB
:103F2C001FF09BEF1FF0A4EF1FF031513211D8A4FA
:103F3C00A2EF1FF0A4EF1FF0C4EF1FF0336BDDEF07
:103F4C001FF02FC12BF130C12CF131C1F6FF32C162
:103F5C00F7FF000EF86E0F0EF76403D00800F55053
:103F6C0005D0F6CFE9FFF7CFEAFFEF5001012D6F37
:103F7C00DDEC1AF00101336F314B322B31C1F6FFFE
:103F8C0032C1F7FF000EF86E0F0EF76403D0080075
:103F9C00F55005D0F6CFE9FFF7CFEAFFEF50000957
:103FAC00D8A4DBEF1FF0DDEF1FF0A7EF1FF001012E
:103FBC0033511200010E0001A86FA451A511D8B401
:103FCC00EAEF1FF0ECEF1FF0F5EF1FF0A651A71171
:103FDC00D8A4F3EF1FF0F5EF1FF015EF20F0A86B4E
:103FEC002EEF20F0A4C0A0F0A5C0A1F0A6C0F6FF53
:103FFC00A7C0F7FF000EF86E0F0EF76403D0080091
:10400C00F55005D0F6CFE9FFF7CFEAFFEF500001EE
:10401C00A26F65EC1CF00001A86FA64BA72BA6C0E5
:10402C00F6FFA7C0F7FF000EF86E0F0EF76403D073
:10403C000800F55005D0F6CFE9FFF7CFEAFFEF50B7
:10404C000009D8A42CEF20F02EEF20F0F8EF1FF091
:10405C000001A851120017501810D8A438EF20F006
:10406C003AEF20F06DEF20F01B6A80EF20F017C0C4
:10407C0013F018C014F01A507F0F156E28EC1DF0B9
:10408C001B6E80EF20F017C013F018C014F01A50FC
:10409C00BF0F156E28EC1DF01B6E80EF20F017C0C3
:1040AC0013F018C014F01A50930F156E28EC1DF075
:1040BC001B6E80EF20F017C013F018C014F01A50CC
:1040CC00D30F156E28EC1DF01B6E80EF20F01950ED
:1040DC00010AD8B43DEF20F0030AD8B449EF20F020
:1040EC00010AD8B455EF20F0070AD8B461EF20F0DC
:1040FC003AEF20F01B501200010123512411D8B4C7
:10410C008AEF20F08CEF20F0ACEF20F023C1D9FF28
:10411C0024C1DAFFDF50070B256F050E256199EFDF
:10412C0020F09BEF20F0ACEF20F023C1D9FF24C18D
:10413C00DAFFDF30E832E832070B256F070E256512
:10414C00AAEF20F0ACEF20F0AFEF20F0266BCFEF12
:10415C0020F023C119F124C11AF123C1D9FF24C1C4
:10416C00DAFF000EDFBC010E1B6F06EC15F001012F
:10417C00266F23C119F124C11AF123C1D9FF24C11F
:10418C00DAFF000EDFBE010E1B6FB0EC15F0010163
:10419C00266F265112007CA2D6EF20F0FAEF21F008
:1041AC007004D8A4DCEF20F0DEEF20F01EEF21F03D
:1041BC00B80E0001A96F010EAA6F200EAB6F6FC075
:1041CC00ACF0010EAD6F96EC26F0010E6F240001E1
:1041DC008E6F8F6B000E8F23000E916F050E906FFC
:1041EC0034EC1EF000018E516F6E6F50D8A401EFAD
:1041FC0021F003EF21F005EF21F0020E6F6EB80EE7
:10420C00A46F010EA56F6FC0A6F0010EA76F39EC5D
:10421C001FF0B80E0001AF6F010EB06FD90EB16F69
:10422C006FC0B2F0010EB36F010EB46F83EC22F0CD
:10423C001200010E1B6E17501810D8B428EF21F085
:10424C002AEF21F033EF21F019501A10D8A431EFD6
:10425C0021F033EF21F051EF21F01B6A6AEF21F0CE
:10426C0017C013F018C014F019C0F6FF1AC0F7FFEE
:10427C00000EF86E0F0EF76403D00800F55005D051
:10428C00F6CFE9FFF7CFEAFFEF50156E82EC1DF089
:10429C001B6E194A1A2A19C0F6FF1AC0F7FF000E36
:1042AC00F86E0F0EF76403D00800F55005D0F6CF6A
:1042BC00E9FFF7CFEAFFEF500009D8A468EF21F02F
:1042CC006AEF21F036EF21F01B501200940EF66EBF
:1042DC00530EF76E000EF86E01EE95F010EE35F001
:1042EC000900F5CFEEFFE550E150FAE1400EF66E15
:1042FC00560EF76E000EF86E00EEC5F010EE26F0BE
:10430C000900F5CFEEFFE550E150FAE12A0EF66E0A
:10431C00570EF76E000EF86E0900F5CF79F0090014
:10432C00F5CF7AF00900F5CF7BF001EE5BF03A0E99
:10433C00EE6AE806FDE10001F06BEF6BEE6BED6BE6
:10434C00EC6BEB6B00EE40F0390EEE6AE806FDE12B
:10435C007C907C9200015EEF24F0010E0101296F2C
:10436C002751D8A4BCEF21F0BEEF21F0C1EF21F012
:10437C00296BF8EF21F0D08EF28EF28CF28CF29841
:10438C00F292C70E236F010E246F82EC20F0010114
:10439C0029172751D96EDA6A030ED926DF50D8A413
:1043AC00DAEF21F0DCEF21F0DFEF21F0F19CF0EF00
:1043BC0021F02751D96EDA6A030ED926DE04D8A46F
:1043CC00EAEF21F0ECEF21F0EFEF21F0F18CF0EFC0
:1043DC0021F0296B2751D96EDA6ADECF85F1DDCF5A
:1043EC0086F1F288295112007004D8A400EF22F053
:1043FC0002EF22F03EEF22F0B80E1C6E010E1D6E85
:10440C00200E1E6E6FC01FF0010E206EF6EC27F012
:10441C00010E6F24016E026A000E0222000E046E61
:10442C00050E036E8CEC1EF001506F6E6F50D8A40D
:10443C0022EF22F024EF22F026EF22F0020E6F6E14
:10444C00B80E176E010E186E6FC019F0010E1A6EB1
:10445C0031EC20F0B80E226E010E236ED90E246EB4
:10446C006FC025F0010E266E010E276EC7EC22F0F0
:10447C001200010E01012D6F2A51D8A448EF22F031
:10448C004AEF22F064EF22F082EF22F02AC127F1EA
:10449C00B3EC21F001012D1782EF22F02AC127F194
:1044AC00B1EC19F001012D1782EF22F02AC127F18E
:1044BC004CEC19F001012D1782EF22F02A51D96E24
:1044CC00DA6A020ED926DF502B6F2C6B2C51000AA6
:1044DC00D8B473EF22F04AEF22F02B51000AD8B473
:1044EC004CEF22F0010AD8B454EF22F0030AD8B4EE
:1044FC005CEF22F04AEF22F012000001AF51B01134
:10450C00D8B48BEF22F08DEF22F095EF22F0B15161
:10451C00D8A493EF22F095EF22F097EF22F0C6EF9C
:10452C0022F0AFC0A0F0B0C0A1F0B451080DF35010
:10453C00400FA26F03EC1CF00001B56BAFC0A0F0F4
:10454C00B0C0A1F0B151B525D96EDA6ADF50A26FB7
:10455C0065EC1CF00001B52B070EB565B8EF22F029
:10456C00BAEF22F0A4EF22F0AFC0A9F0B0C0AAF0CD
:10457C00B4C0ABF0B2C0ACF0B3C0ADF096EC26F06A
:10458C00120022502310D8B4CEEF22F0D0EF22F03C
:10459C00D8EF22F02450D8A4D6EF22F0D8EF22F096
:1045AC00DAEF22F007EF23F022C013F023C014F04F
:1045BC002750080DF350400F156E28EC1DF0286A9B
:1045CC0022C013F023C014F024502824D96EDA6AC8
:1045DC00DF50156E82EC1DF0282A070E2864F9EFC7
:1045EC0022F0FBEF22F0E6EF22F022C01CF023C0F9
:1045FC001DF027C01EF025C01FF026C020F0F6ECE1
:10460C0027F01200010122512311D8A410EF23F03E
:10461C0012EF23F015EF23F0296B41EF23F02A6BF7
:10462C002A512225256F000E2321266F020E2525E7
:10463C00196F000E26211A6F2AC127F1040E2727A5
:10464C0024C128F1272B2DEF23F0D8902833272FC6
:10465C002BEF23F001012851010B1B6FB0EC15F06F
:10466C000101296F2A2B030E2A653FEF23F041EF3E
:10467C0023F016EF23F029511200000197519811E5
:10468C00D8A44BEF23F04DEF23F050EF23F09E6BAB
:10469C007CEF23F09F6B9F5197259A6F000E98210A
:1046AC009B6F020E9A258E6F000E9B218F6F9FC001
:1046BC009CF0040E9C2799C09DF09C2B68EF23F076
:1046CC00D8909D339C2F66EF23F000019D51010B78
:1046DC00906F52EC16F000019E6F9F2B030E9F659E
:1046EC007AEF23F07CEF23F051EF23F09E51120070
:1046FC00010122512311D8A486EF23F088EF23F077
:10470C008BEF23F0296BB5EF23F02A6B2A5122256E
:10471C00256F000E2321266F020E2525196F000E22
:10472C0026211A6F2AC127F124C128F1272BA1EFCA
:10473C0023F0D8902833272F9FEF23F00101285125
:10474C00010B1B6FB0EC15F00101296F2A2B030E26
:10475C002A65B3EF23F0B5EF23F08CEF23F029514A
:10476C001200000197519811D8A4BFEF23F0C1EFAC
:10477C0023F0C4EF23F09E6BEEEF23F09F6B9F5161
:10478C0097259A6F000E98219B6F020E9A258E6FBB
:10479C00000E9B218F6F9FC09CF099C09DF09C2BAD
:1047AC00DAEF23F0D8909D339C2FD8EF23F0000143
:1047BC009D51010B906F52EC16F000019E6F9F2BD8
:1047CC00030E9F65ECEF23F0EEEF23F0C5EF23F023
:1047DC009E5112000A500B10D8A4F7EF23F0F9EFFA
:1047EC0023F0FCEF23F0116A26EF24F0126A12502A
:1047FC000A240D6E000E0B200E6E020E0D24016E9F
:10480C00000E0E20026E12C00FF0040E0F260CC00C
:10481C0010F00F2A14EF24F0D89010320F2E12EF54
:10482C0024F01050010B036EF4EC16F0116E122AEA
:10483C00030E126424EF24F026EF24F0FDEF23F096
:10484C00115012000A500B10D8A42FEF24F031EFA6
:10485C0024F034EF24F0116A5CEF24F0126A125049
:10486C000A240D6E000E0B200E6E020E0D24016E2E
:10487C00000E0E20026E12C00FF00CC010F00F2AAA
:10488C004AEF24F0D89010320F2E48EF24F010503D
:10489C00010B036EF4EC16F0116E122A030E126467
:1048AC005AEF24F05CEF24F035EF24F01150120095
:1048BC0048EC13F0770E01011D6F030EFCEC25F094
:1048CC007050D8A46CEF24F06EEF24F07FEF24F03E
:1048DC00B80E0101506F010E516F77C052F178C0C4
:1048EC0053F1546B556B040E566F010E576FAAECB7
:1048FC0025F0150E01015A6F4B0E596FBE0EE82EA6
:10490C00FED7592FFCD75A2FFAD7000060EF24F0AE
:10491C0010EF02F0010122512311D8A498EF24F0DA
:10492C009AEF24F09CEF24F0C1EF24F000D0080E95
:10493C0001012225196F000E23211A6F000E1B6F27
:10494C00B0EC15F0040E010122251D6F000E232181
:10495C001E6F24C11FF125C120F194EC28F0080E24
:10496C0001012225196F000E23211A6F010E1B6FF6
:10497C00B0EC15F000D01200000197519811D8A49A
:10498C00CAEF24F0CCEF24F0CEEF24F0F3EF24F0B8
:10499C0000D0080E000197258E6F000E98218F6FA6
:1049AC00000E906F52EC16F0040E00019725916FDB
:1049BC00000E9821926F99C093F09AC094F0CEECAF
:1049CC0028F0080E000197258E6F000E98218F6F2E
:1049DC00010E906F52EC16F000D012000101345110
:1049EC003511D8B4FCEF24F0FEEF24F007EF25F0DE
:1049FC0036513711D8A405EF25F007EF25F00AEF53
:104A0C0025F03A6B20EF25F034C12FF135C130F190
:104A1C0038C131F139C132F1E3EC1EF034C12FF160
:104A2C0035C130F136C131F137C132F18FEC1FF0A5
:104A3C0001013A6F3A5112000001A951AA11D8B4E0
:104A4C002AEF25F02CEF25F035EF25F0AB51AC110A
:104A5C00D8A433EF25F035EF25F038EF25F0AF6B08
:104A6C004EEF25F0A9C0A4F0AAC0A5F0ADC0A6F0E9
:104A7C00AEC0A7F039EC1FF0A9C0A4F0AAC0A5F0F5
:104A8C00ABC0A6F0ACC0A7F0E0EC1FF00001AF6F1C
:104A9C00AF5112000A500B10D8A457EF25F059EF64
:104AAC0025F05BEF25F07DEF25F000D0080E0A24F1
:104ABC00016E000E0B20026E000E036EF4EC16F06D
:104ACC00040E0A24046E000E0B20056E0CC006F0BA
:104ADC000DC007F078EC29F0080E0A24016E000EC8
:104AEC000B20026E010E036EF4EC16F000D01200D7
:104AFC001C501D10D8B485EF25F087EF25F090EFF2
:104B0C0025F01E501F10D8A48EEF25F090EF25F045
:104B1C0093EF25F0226AA8EF25F01CC017F01DC0FA
:104B2C0018F020C019F021C01AF031EC20F01CC094
:104B3C0017F01DC018F01EC019F01FC01AF01FECA2
:104B4C0021F0226E22501200010150515111D8A4B3
:104B5C00B2EF25F0B4EF25F0B7EF25F0586BD2EF9C
:104B6C0025F052C14CF153C14DF154C14EF155C118
:104B7C004FF190EC27F050C134F151C135F1880E52
:104B8C000101366F010E376F56C138F157C139F13B
:104B9C00F4EC24F00101586F5851120034C137F174
:104BAC00E7EF25F032C123F133C124F1370E0101B7
:104BBC00256F010E266F35C127F136C128F161EC46
:104BCC000FF037C1F6FF100EF76EF86A0800F550BB
:104BDC000009D8A4F4EF25F0F6EF25F0D8EF25F076
:104BEC00000E0101336F000E326F120001011F6FB6
:104BFC0001011D51D8A405EF26F007EF26F009EFAF
:104C0C0026F022EF26F01F510CEC18F01FC11EF1FC
:104C1C0001011E471E47C2501E19C30B1E19C26E3E
:104C2C00C282C2B21CEF26F01EEF26F017EF26F060
:104C3C001DC119F133EC2BF01200A9C0ACF035EF0B
:104C4C0026F0A7C098F0A8C099F0AC0E00019A6F9E
:104C5C009B6BAAC09CF0ABC09DF05EEC10F0ACC09E
:104C6C00F6FF100EF76EF86A0800F5500009D8A48C
:104C7C0042EF26F044EF26F027EF26F0000E00015D
:104C8C00A86F000EA76F12003B0E01013F6F010EC3
:104C9C00406F38C141F139C142F1000E446F000E32
:104CAC00436F000E4B6F000E4A6F410E326F010EB8
:104CBC00336F3AC134F13F0E356F010E366FD4ECC1
:104CCC0025F0010143513825D96E44513921DA6E52
:104CDC00DF6A1200010100510111D8A478EF26F00F
:104CEC007AEF26F07CEF26F095EF26F002C1C1F0AA
:104CFC0003C1C2F004C1C3F005C1C4F0B2EC27F08B
:104D0C0000C1A9F001C1AAF0880E0001AB6F010E21
:104D1C00AC6F06C1ADF007C1AEF022EC25F012006D
:104D2C000001A951AA11D8A49EEF26F0A0EF26F0FD
:104D3C00A3EF26F0AE6BB9EF26F0A9C0A4F0AAC081
:104D4C00A5F0ACC0A6F0ADC0A7F039EC1FF0000187
:104D5C00AE6FA9C0A0F0AAC0A1F0ABC0A2F065ECE8
:104D6C001CF00001AE6FAE5112001CC01FF0CCEF56
:104D7C0026F01AC00BF01BC00CF01F0E0D6E0E6A45
:104D8C001DC00FF01EC010F05BEC11F01FC0F6FF41
:104D9C00100EF76EF86A0800F5500009D8A4D9EF88
:104DAC0026F0DBEF26F0BFEF26F0000E1B6E000E98
:104DBC001A6E1200000EF2BE010E0001916F8F519F
:104DCC00030BAA6E8EC0A9FF90C0A8FFA69EA69C3E
:104DDC00A684F29E550EA76EAA0EA76EA682A6B248
:104DEC00FAEF26F0FCEF26F0F5EF26F0A694000182
:104DFC0091B102D0F29E01D0F28E120038503910CF
:104E0C00D8A40BEF27F00DEF27F00FEF27F027EFCB
:104E1C0027F03AC034F03BC035F03CC036F03DC012
:104E2C0037F039EC28F038C01CF039C01DF0880E72
:104E3C001E6E010E1F6E3EC020F03FC021F07EECB6
:104E4C0025F01200010E01011C6F19511A11D8A482
:104E5C0032EF27F034EF27F037EF27F01C6B48EFD9
:104E6C0027F0C6AE3CEF27F03EEF27F03FEF27F0E0
:104E7C00C69E1BC1C9FFC7A046EF27F048EF27F01D
:104E8C0041EF27F001011C511200B00E0001B46F6C
:104E9C00B56BADC0B6F0AEC0B7F0000EB96F000E7A
:104EAC00B86F000EC06F000EBF6FB60EA76FA86B69
:104EBC00AFC0A9F0B40EAA6FAB6B23EC26F00001C7
:104ECC00B851AD25D96EB951AE21DA6EDF6A120038
:104EDC0001011B6F010E01011C6F19511A11D8A48D
:104EEC007AEF27F07CEF27F07FEF27F01C6B8DEF2C
:104EFC0027F0AA6A1BC1A9FFA69EA69CA68000004B
:104F0C00000019C1D9FF1AC1DAFFA8CFDFFF0101D8
:104F1C001C511200880E0101196F010E1A6F2F0E11
:104F2C001C6F300E1B6F000E1E6F0B0E1D6F77EC7F
:104F3C0028F0880E0101386F010E396F970E3A6F09
:104F4C004CC13BF14DC13CF14EC13DF14FC13EF165
:104F5C004AEC26F0010E1200880E00018E6F010E35
:104F6C008F6F2F0E916F300E906F000E936F0B0E94
:104F7C00926FB1EC28F0880E0001AD6F010EAE6F90
:104F8C00970EAF6FC1C0B0F0C2C0B1F0C3C0B2F0E9
:104F9C00C4C0B3F04BEC27F0010E1200000EF2BEB1
:104FAC00010E046E0250030BAA6E01C0A9FF03C0D0
:104FBC00A8FFA69EA69CA684F29E550EA76EAA0ECE
:104FCC00A76EA682A6B2EDEF27F0EFEF27F0E8EF81
:104FDC0027F0A69404B002D0F29E01D0F28E1200FB
:104FEC001C501D10D8A4FDEF27F0FFEF27F002EFA7
:104FFC0028F0216A16EF28F01CC017F01DC018F01D
:10500C001FC019F020C01AF031EC20F0216E1CC02A
:10501C0013F01DC014F01EC015F082EC1DF0216EB3
:10502C0021501200230E276E286A20C029F021C0BF
:10503C002AF0000E2C6E000E2B6E000E336E000E3E
:10504C00326E290E1A6E1B6A22C01CF0270E1D6EC2
:10505C001E6ABBEC26F02B502024D96E2C5021203C
:10506C00DA6EDF6A1200880E016E010E026E2F0ED0
:10507C00046E300E036E000E066E0B0E056E5CECAD
:10508C0029F0880E206E010E216E970E226E34C010
:10509C0023F035C024F036C025F037C026F018ECCC
:1050AC0028F0010E120000018E518F11D8A461EF6F
:1050BC0028F063EF28F065EF28F076EF28F0C6AE05
:1050CC006AEF28F06CEF28F06DEF28F0C69E90C0C8
:1050DC00C9FFC7A074EF28F076EF28F06FEF28F027
:1050EC00120019C11FF11AC120F185EF28F01FC160
:1050FC00D9FF20C1DAFF1BC1DFFF1F4B202B0101A1
:10510C001D07D8A01E071D2906E11E29D8A491EF62
:10511C0028F093EF28F07DEF28F0120001011D51CB
:10512C001E11D8A49CEF28F09EEF28F0A0EF28F0D9
:10513C00B0EF28F01DC119F11EC11AF120511B6FDF
:10514C0028EC27F01DC119F11EC11AF11FC11BF16A
:10515C0028EC27F012008EC094F08FC095F0BFEFB2
:10516C0028F094C0D9FF95C0DAFF90C0DFFF944BB4
:10517C00952B00019207D8A09307922906E1932959
:10518C00D8A4CBEF28F0CDEF28F0B7EF28F0120021
:10519C00000191519211D8A4D6EF28F0D8EF28F045
:1051AC00DAEF28F0EAEF28F091C08EF092C08FF081
:1051BC009451906F59EC28F091C08EF092C08FF002
:1051CC0093C090F059EC28F0120001500210D8A4B2
:1051DC00F2EF28F0F4EF28F0F6EF28F007EF29F0C3
:1051EC00C6AEFBEF28F0FDEF28F0FEEF28F0C69ED0
:1051FC0003C0C9FFC7A005EF29F007EF29F000EFA6
:10520C0029F01200010E00019D6F9B519C11D8A436
:10521C0012EF29F014EF29F017EF29F09D6B21EF15
:10522C0029F09BC097F09CC098F0200E9A6F020E4C
:10523C00996FC2EC24F000019D511200010E000187
:10524C009D6F9B519C11D8A42EEF29F030EF29F0C3
:10525C0033EF29F09D6B3DEF29F09BC097F09CC07C
:10526C0098F0200E9A6F200E996FC2EC24F000017A
:10527C009D511200010E00019D6F9B519C11D8A4F1
:10528C004AEF29F04CEF29F04FEF29F09D6B59EFC5
:10529C0029F09BC097F09CC098F0200E9A6F000EDE
:1052AC00996FC2EC24F000019D51120001C007F06F
:1052BC0002C008F06AEF29F007C0D9FF08C0DAFF76
:1052CC0003C0DFFF074A082A0506D8A006060528F2
:1052DC0006E10628D8A475EF29F077EF29F062EFE4
:1052EC0029F0120004500510D8A47FEF29F081EFAB
:1052FC0029F083EF29F093EF29F004C001F005C0E9
:10530C0002F00750036EEBEC28F004C001F005C06E
:10531C0002F006C003F0EBEC28F01200010120BFF4
:10532C009AEF29F09CEF29F0A2EF29F01FC11FF191
:10533C0020C120F1AEEF29F01FC121F120C122F1D3
:10534C00211F221F214B222B21C11FF122C120F131
:10535C001200000195BFB5EF29F0B7EF29F0BDEFB2
:10536C0029F094C094F095C095F0C9EF29F094C041
:10537C0096F095C097F0961F971F964B972B96C05B
:10538C0094F097C095F012003738392F3435362AFF
:10539C003132332D43303D2B920F930F940F950FD9
:1053AC00960F000000000000000132030B131B23BA
:0D53BC002B281A2A797169615149417A72D2
:1053CA0008BEEAEF29F0ECEF29F0F2EF29F007C066
:1053DA0007F008C008F0FEEF29F007C009F008C07E
:1053EA000AF0091E0A1E094A0A2A09C007F00AC059
:1053FA0008F01200010E106E0E500F10D8A408EF1C
:10540A002AF00AEF2AF00DEF2AF0106A17EF2AF0B5
:10541A000EC00AF00FC00BF0200E0D6E020E0C6EBD
:10542A0050EC25F010501200010E106E0E500F10A5
:10543A00D8A422EF2AF024EF2AF027EF2AF0106AE4
:10544A0031EF2AF00EC00AF00FC00BF0200E0D6EDD
:10545A00200E0C6E50EC25F010501200010E106E4A
:10546A000E500F10D8A43CEF2AF03EEF2AF041EF7D
:10547A002AF0106A4BEF2AF00EC00AF00FC00BF0A8
:10548A00200E0D6E000E0C6E50EC25F0105012001E
:10549A00C290C050C70B2809C06EC050F80B05094E
:1054AA00C06EC08EF28EF28C9D9C9E9C9F8C9D8CB1
:1054BA00C19AC198C150F00B0B09C16EC280010E8E
:1054CA001200F092010181518211D8B46FEF2AF0D3
:1054DA0071EF2AF07DEF2AF002D87DEF2AF005005D
:1054EA00FA6E8151FD6E8251FE6EFF6AFA50120009
:1054FA001200F090010183518411D8B487EF2AF089
:10550A0089EF2AF095EF2AF002D895EF2AF00500E4
:10551A00FA6E8351FD6E8451FE6EFF6AFA501200D4
:10552A001200F292010185518611D8B49FEF2AF038
:10553A00A1EF2AF0ADEF2AF002D8ADEF2AF005006C
:10554A00FA6E8551FD6E8651FE6EFF6AFA501200A0
:10555A001200F092010181518211D8B4B7EF2AF0FA
:10556A00B9EF2AF0C5EF2AF002D8C5EF2AF00500F4
:10557A00FA6E8151FD6E8251FE6EFF6AFA50120078
:10558A001200F090010183518411D8B4CFEF2AF0B0
:10559A00D1EF2AF0DDEF2AF002D8DDEF2AF005007C
:1055AA00FA6E8351FD6E8451FE6EFF6AFA50120044
:1055BA001200F292010185518611D8B4E7EF2AF060
:1055CA00E9EF2AF0F5EF2AF002D8F5EF2AF0050004
:1055DA00FA6E8551FD6E8651FE6EFF6AFA50120010
:1055EA0012009D9A5A505B10D8B4FEEF2AF000EFD1
:1055FA002BF00AEF2BF05AC0D9FF5BC0DAFFAECF0F
:10560A00DFFF000E5A6E000E5B6E12009D9A5A5012
:10561A005B10D8B413EF2BF015EF2BF01FEF2BF024
:10562A005AC0D9FF5BC0DAFFAECFDFFF000E5A6E59
:10563A00000E5B6E1200890F8A0F8B0F8C0F8D0F75
:10564A00800F810F820F830F840F000004021F0254
:10565A000400A241010101EC19000101C450010139
:10566A001B6FC3501A6F1951D96EDA6A1AC1DEFF5D
:10567A001BC1DDFF010E12009D987650D8B448EF89
:10568A002BF04AEF2BF04DEF2BF076C0ADFF766A88
:10569A0012009D987650D8B455EF2BF057EF2BF0A7
:1056AA005AEF2BF076C0ADFF766A1200F2944F5093
:1056BA00D76E4EC0D6FF1200F2944F50D76E4EC02E
:1056CA00D6FF12009E9271C0CCFF12009E9271C04A
:1056DA00CCFF12009E969D9612009E969D961200F1
:1056EA009E901200F2901200F2901200F2901200B4
:1056FA00F2901200A19012009E9412009E9C120039
:10570A009E901200F2901200F2901200F290120093
:10571A00F2901200A19012009E9412009E9C120018
:03572A00010A125F
:0A572E001200120012001200120017
:020000040030CA
:0E000000FF02091EFF8181FF0FC00FE00F40BD
:00000001FF
